{
  "address": "0xcd03fa6E41C4280Fb594AF377C0d51d6a5778587",
  "abi": [
    {
      "inputs": [
        {
          "internalType": "address",
          "name": "_endpoint",
          "type": "address"
        },
        {
          "internalType": "address",
          "name": "_owner",
          "type": "address"
        }
      ],
      "stateMutability": "nonpayable",
      "type": "constructor"
    },
    {
      "inputs": [
        {
          "internalType": "address",
          "name": "target",
          "type": "address"
        }
      ],
      "name": "AddressEmptyCode",
      "type": "error"
    },
    {
      "inputs": [
        {
          "internalType": "address",
          "name": "account",
          "type": "address"
        }
      ],
      "name": "AddressInsufficientBalance",
      "type": "error"
    },
    {
      "inputs": [
        {
          "internalType": "address",
          "name": "spender",
          "type": "address"
        },
        {
          "internalType": "uint256",
          "name": "allowance",
          "type": "uint256"
        },
        {
          "internalType": "uint256",
          "name": "needed",
          "type": "uint256"
        }
      ],
      "name": "ERC20InsufficientAllowance",
      "type": "error"
    },
    {
      "inputs": [
        {
          "internalType": "address",
          "name": "sender",
          "type": "address"
        },
        {
          "internalType": "uint256",
          "name": "balance",
          "type": "uint256"
        },
        {
          "internalType": "uint256",
          "name": "needed",
          "type": "uint256"
        }
      ],
      "name": "ERC20InsufficientBalance",
      "type": "error"
    },
    {
      "inputs": [
        {
          "internalType": "address",
          "name": "approver",
          "type": "address"
        }
      ],
      "name": "ERC20InvalidApprover",
      "type": "error"
    },
    {
      "inputs": [
        {
          "internalType": "address",
          "name": "receiver",
          "type": "address"
        }
      ],
      "name": "ERC20InvalidReceiver",
      "type": "error"
    },
    {
      "inputs": [
        {
          "internalType": "address",
          "name": "sender",
          "type": "address"
        }
      ],
      "name": "ERC20InvalidSender",
      "type": "error"
    },
    {
      "inputs": [
        {
          "internalType": "address",
          "name": "spender",
          "type": "address"
        }
      ],
      "name": "ERC20InvalidSpender",
      "type": "error"
    },
    {
      "inputs": [],
      "name": "FailedInnerCall",
      "type": "error"
    },
    {
      "inputs": [],
      "name": "InvalidDelegate",
      "type": "error"
    },
    {
      "inputs": [],
      "name": "InvalidEndpointCall",
      "type": "error"
    },
    {
      "inputs": [],
      "name": "LzTokenUnavailable",
      "type": "error"
    },
    {
      "inputs": [
        {
          "internalType": "uint32",
          "name": "eid",
          "type": "uint32"
        }
      ],
      "name": "NoPeer",
      "type": "error"
    },
    {
      "inputs": [
        {
          "internalType": "uint256",
          "name": "msgValue",
          "type": "uint256"
        }
      ],
      "name": "NotEnoughNative",
      "type": "error"
    },
    {
      "inputs": [
        {
          "internalType": "address",
          "name": "addr",
          "type": "address"
        }
      ],
      "name": "OnlyEndpoint",
      "type": "error"
    },
    {
      "inputs": [
        {
          "internalType": "uint32",
          "name": "eid",
          "type": "uint32"
        },
        {
          "internalType": "bytes32",
          "name": "sender",
          "type": "bytes32"
        }
      ],
      "name": "OnlyPeer",
      "type": "error"
    },
    {
      "inputs": [
        {
          "internalType": "address",
          "name": "owner",
          "type": "address"
        }
      ],
      "name": "OwnableInvalidOwner",
      "type": "error"
    },
    {
      "inputs": [
        {
          "internalType": "address",
          "name": "account",
          "type": "address"
        }
      ],
      "name": "OwnableUnauthorizedAccount",
      "type": "error"
    },
    {
      "inputs": [
        {
          "internalType": "address",
          "name": "token",
          "type": "address"
        }
      ],
      "name": "SafeERC20FailedOperation",
      "type": "error"
    },
    {
      "anonymous": false,
      "inputs": [
        {
          "indexed": true,
          "internalType": "address",
          "name": "owner",
          "type": "address"
        },
        {
          "indexed": true,
          "internalType": "address",
          "name": "spender",
          "type": "address"
        },
        {
          "indexed": false,
          "internalType": "uint256",
          "name": "value",
          "type": "uint256"
        }
      ],
      "name": "Approval",
      "type": "event"
    },
    {
      "anonymous": false,
      "inputs": [
        {
          "indexed": true,
          "internalType": "address",
          "name": "previousOwner",
          "type": "address"
        },
        {
          "indexed": true,
          "internalType": "address",
          "name": "newOwner",
          "type": "address"
        }
      ],
      "name": "OwnershipTransferred",
      "type": "event"
    },
    {
      "anonymous": false,
      "inputs": [
        {
          "indexed": false,
          "internalType": "uint32",
          "name": "eid",
          "type": "uint32"
        },
        {
          "indexed": false,
          "internalType": "bytes32",
          "name": "peer",
          "type": "bytes32"
        }
      ],
      "name": "PeerSet",
      "type": "event"
    },
    {
      "anonymous": false,
      "inputs": [
        {
          "indexed": true,
          "internalType": "address",
          "name": "from",
          "type": "address"
        },
        {
          "indexed": true,
          "internalType": "address",
          "name": "to",
          "type": "address"
        },
        {
          "indexed": false,
          "internalType": "uint256",
          "name": "value",
          "type": "uint256"
        }
      ],
      "name": "Transfer",
      "type": "event"
    },
    {
      "inputs": [],
      "name": "SWAP",
      "outputs": [
        {
          "internalType": "string",
          "name": "",
          "type": "string"
        }
      ],
      "stateMutability": "view",
      "type": "function"
    },
    {
      "inputs": [
        {
          "components": [
            {
              "internalType": "uint32",
              "name": "srcEid",
              "type": "uint32"
            },
            {
              "internalType": "bytes32",
              "name": "sender",
              "type": "bytes32"
            },
            {
              "internalType": "uint64",
              "name": "nonce",
              "type": "uint64"
            }
          ],
          "internalType": "struct Origin",
          "name": "origin",
          "type": "tuple"
        }
      ],
      "name": "allowInitializePath",
      "outputs": [
        {
          "internalType": "bool",
          "name": "",
          "type": "bool"
        }
      ],
      "stateMutability": "view",
      "type": "function"
    },
    {
      "inputs": [
        {
          "internalType": "address",
          "name": "owner",
          "type": "address"
        },
        {
          "internalType": "address",
          "name": "spender",
          "type": "address"
        }
      ],
      "name": "allowance",
      "outputs": [
        {
          "internalType": "uint256",
          "name": "",
          "type": "uint256"
        }
      ],
      "stateMutability": "view",
      "type": "function"
    },
    {
      "inputs": [
        {
          "internalType": "address",
          "name": "spender",
          "type": "address"
        },
        {
          "internalType": "uint256",
          "name": "value",
          "type": "uint256"
        }
      ],
      "name": "approve",
      "outputs": [
        {
          "internalType": "bool",
          "name": "",
          "type": "bool"
        }
      ],
      "stateMutability": "nonpayable",
      "type": "function"
    },
    {
      "inputs": [
        {
          "internalType": "address",
          "name": "account",
          "type": "address"
        }
      ],
      "name": "balanceOf",
      "outputs": [
        {
          "internalType": "uint256",
          "name": "",
          "type": "uint256"
        }
      ],
      "stateMutability": "view",
      "type": "function"
    },
    {
      "inputs": [
        {
          "internalType": "address",
          "name": "_owner",
          "type": "address"
        },
        {
          "internalType": "uint256",
          "name": "amount",
          "type": "uint256"
        }
      ],
      "name": "burn",
      "outputs": [],
      "stateMutability": "nonpayable",
      "type": "function"
    },
    {
      "inputs": [],
      "name": "decimals",
      "outputs": [
        {
          "internalType": "uint8",
          "name": "",
          "type": "uint8"
        }
      ],
      "stateMutability": "view",
      "type": "function"
    },
    {
      "inputs": [],
      "name": "endpoint",
      "outputs": [
        {
          "internalType": "contract ILayerZeroEndpointV2",
          "name": "",
          "type": "address"
        }
      ],
      "stateMutability": "view",
      "type": "function"
    },
    {
      "inputs": [
        {
          "components": [
            {
              "internalType": "uint32",
              "name": "srcEid",
              "type": "uint32"
            },
            {
              "internalType": "bytes32",
              "name": "sender",
              "type": "bytes32"
            },
            {
              "internalType": "uint64",
              "name": "nonce",
              "type": "uint64"
            }
          ],
          "internalType": "struct Origin",
          "name": "",
          "type": "tuple"
        },
        {
          "internalType": "bytes",
          "name": "",
          "type": "bytes"
        },
        {
          "internalType": "address",
          "name": "_sender",
          "type": "address"
        }
      ],
      "name": "isComposeMsgSender",
      "outputs": [
        {
          "internalType": "bool",
          "name": "",
          "type": "bool"
        }
      ],
      "stateMutability": "view",
      "type": "function"
    },
    {
      "inputs": [
        {
          "components": [
            {
              "internalType": "uint32",
              "name": "srcEid",
              "type": "uint32"
            },
            {
              "internalType": "bytes32",
              "name": "sender",
              "type": "bytes32"
            },
            {
              "internalType": "uint64",
              "name": "nonce",
              "type": "uint64"
            }
          ],
          "internalType": "struct Origin",
          "name": "_origin",
          "type": "tuple"
        },
        {
          "internalType": "bytes32",
          "name": "_guid",
          "type": "bytes32"
        },
        {
          "internalType": "bytes",
          "name": "_message",
          "type": "bytes"
        },
        {
          "internalType": "address",
          "name": "_executor",
          "type": "address"
        },
        {
          "internalType": "bytes",
          "name": "_extraData",
          "type": "bytes"
        }
      ],
      "name": "lzReceive",
      "outputs": [],
      "stateMutability": "payable",
      "type": "function"
    },
    {
      "inputs": [
        {
          "internalType": "uint32",
          "name": "_dstEid",
          "type": "uint32"
        },
        {
          "internalType": "uint256",
          "name": "_num",
          "type": "uint256"
        },
        {
          "internalType": "address",
          "name": "_address",
          "type": "address"
        },
        {
          "internalType": "string",
          "name": "_msg",
          "type": "string"
        },
        {
          "internalType": "bytes",
          "name": "_options",
          "type": "bytes"
        }
      ],
      "name": "lzSend",
      "outputs": [
        {
          "components": [
            {
              "internalType": "bytes32",
              "name": "guid",
              "type": "bytes32"
            },
            {
              "internalType": "uint64",
              "name": "nonce",
              "type": "uint64"
            },
            {
              "components": [
                {
                  "internalType": "uint256",
                  "name": "nativeFee",
                  "type": "uint256"
                },
                {
                  "internalType": "uint256",
                  "name": "lzTokenFee",
                  "type": "uint256"
                }
              ],
              "internalType": "struct MessagingFee",
              "name": "fee",
              "type": "tuple"
            }
          ],
          "internalType": "struct MessagingReceipt",
          "name": "receipt",
          "type": "tuple"
        }
      ],
      "stateMutability": "payable",
      "type": "function"
    },
    {
      "inputs": [
        {
          "internalType": "address",
          "name": "recipient",
          "type": "address"
        },
        {
          "internalType": "uint256",
          "name": "amount",
          "type": "uint256"
        }
      ],
      "name": "mint",
      "outputs": [],
      "stateMutability": "nonpayable",
      "type": "function"
    },
    {
      "inputs": [],
      "name": "name",
      "outputs": [
        {
          "internalType": "string",
          "name": "",
          "type": "string"
        }
      ],
      "stateMutability": "view",
      "type": "function"
    },
    {
      "inputs": [
        {
          "internalType": "uint32",
          "name": "",
          "type": "uint32"
        },
        {
          "internalType": "bytes32",
          "name": "",
          "type": "bytes32"
        }
      ],
      "name": "nextNonce",
      "outputs": [
        {
          "internalType": "uint64",
          "name": "nonce",
          "type": "uint64"
        }
      ],
      "stateMutability": "view",
      "type": "function"
    },
    {
      "inputs": [],
      "name": "oAppVersion",
      "outputs": [
        {
          "internalType": "uint64",
          "name": "senderVersion",
          "type": "uint64"
        },
        {
          "internalType": "uint64",
          "name": "receiverVersion",
          "type": "uint64"
        }
      ],
      "stateMutability": "pure",
      "type": "function"
    },
    {
      "inputs": [],
      "name": "owner",
      "outputs": [
        {
          "internalType": "address",
          "name": "",
          "type": "address"
        }
      ],
      "stateMutability": "view",
      "type": "function"
    },
    {
      "inputs": [
        {
          "internalType": "uint32",
          "name": "eid",
          "type": "uint32"
        }
      ],
      "name": "peers",
      "outputs": [
        {
          "internalType": "bytes32",
          "name": "peer",
          "type": "bytes32"
        }
      ],
      "stateMutability": "view",
      "type": "function"
    },
    {
      "inputs": [
        {
          "internalType": "uint32",
          "name": "_dstEid",
          "type": "uint32"
        },
        {
          "internalType": "uint256",
          "name": "_num",
          "type": "uint256"
        },
        {
          "internalType": "address",
          "name": "_address",
          "type": "address"
        },
        {
          "internalType": "string",
          "name": "_msg",
          "type": "string"
        },
        {
          "internalType": "bytes",
          "name": "_options",
          "type": "bytes"
        },
        {
          "internalType": "bool",
          "name": "",
          "type": "bool"
        }
      ],
      "name": "quote",
      "outputs": [
        {
          "components": [
            {
              "internalType": "uint256",
              "name": "nativeFee",
              "type": "uint256"
            },
            {
              "internalType": "uint256",
              "name": "lzTokenFee",
              "type": "uint256"
            }
          ],
          "internalType": "struct MessagingFee",
          "name": "fee",
          "type": "tuple"
        }
      ],
      "stateMutability": "view",
      "type": "function"
    },
    {
      "inputs": [],
      "name": "renounceOwnership",
      "outputs": [],
      "stateMutability": "nonpayable",
      "type": "function"
    },
    {
      "inputs": [
        {
          "internalType": "address",
          "name": "_delegate",
          "type": "address"
        }
      ],
      "name": "setDelegate",
      "outputs": [],
      "stateMutability": "nonpayable",
      "type": "function"
    },
    {
      "inputs": [
        {
          "internalType": "uint32",
          "name": "_eid",
          "type": "uint32"
        },
        {
          "internalType": "bytes32",
          "name": "_peer",
          "type": "bytes32"
        }
      ],
      "name": "setPeer",
      "outputs": [],
      "stateMutability": "nonpayable",
      "type": "function"
    },
    {
      "inputs": [],
      "name": "symbol",
      "outputs": [
        {
          "internalType": "string",
          "name": "",
          "type": "string"
        }
      ],
      "stateMutability": "view",
      "type": "function"
    },
    {
      "inputs": [],
      "name": "totalSupply",
      "outputs": [
        {
          "internalType": "uint256",
          "name": "",
          "type": "uint256"
        }
      ],
      "stateMutability": "view",
      "type": "function"
    },
    {
      "inputs": [
        {
          "internalType": "address",
          "name": "to",
          "type": "address"
        },
        {
          "internalType": "uint256",
          "name": "value",
          "type": "uint256"
        }
      ],
      "name": "transfer",
      "outputs": [
        {
          "internalType": "bool",
          "name": "",
          "type": "bool"
        }
      ],
      "stateMutability": "nonpayable",
      "type": "function"
    },
    {
      "inputs": [
        {
          "internalType": "address",
          "name": "from",
          "type": "address"
        },
        {
          "internalType": "address",
          "name": "to",
          "type": "address"
        },
        {
          "internalType": "uint256",
          "name": "value",
          "type": "uint256"
        }
      ],
      "name": "transferFrom",
      "outputs": [
        {
          "internalType": "bool",
          "name": "",
          "type": "bool"
        }
      ],
      "stateMutability": "nonpayable",
      "type": "function"
    },
    {
      "inputs": [
        {
          "internalType": "address",
          "name": "newOwner",
          "type": "address"
        }
      ],
      "name": "transferOwnership",
      "outputs": [],
      "stateMutability": "nonpayable",
      "type": "function"
    }
  ],
  "transactionHash": "0x51eba06fd7ea3816fe81501aca378a4376b531d810b67159bb6a9147bad5f7b6",
  "args": [
    "0x6EDCE65403992e310A62460808c4b910D972f10f",
    "0x88B1621d8be60c66C54C125Fb5F3fd9e75c1CE87"
  ],
  "numDeployments": 1,
  "solcInputHash": "eb62c05376f2e11dd2d8b06b712ec0a5",
  "bytecode": "0x670de0b6b3a76400006007556000600881905560c060405260a09081526009906200002b908262000424565b50600a80546001600160a01b03191690553480156200004957600080fd5b5060405162002367380380620023678339810160408190526200006c916200050d565b6040805180820182526004808252632d29279960e11b60208084018290528451808601909552918452908301529083838181806001600160a01b038116620000cf57604051631e4fbdf760e01b8152600060048201526024015b60405180910390fd5b620000da81620001bc565b506001600160a01b0380831660805281166200010957604051632d618d8160e21b815260040160405180910390fd5b60805160405163ca5eb5e160e01b81526001600160a01b0383811660048301529091169063ca5eb5e190602401600060405180830381600087803b1580156200015157600080fd5b505af115801562000166573d6000803e3d6000fd5b505050505050505081600590816200017f919062000424565b5060066200018e828262000424565b50505060006007546103e8620001a591906200055b565b9050620001b382826200020c565b50505062000591565b600080546001600160a01b038381166001600160a01b0319831681178455604051919092169283917f8be0079c531659141344cd1fd0a4f28419497f9722a3daafe3b4186f6b6457e09190a35050565b6001600160a01b038216620002385760405163ec442f0560e01b815260006004820152602401620000c6565b62000246600083836200024a565b5050565b6001600160a01b038316620002795780600460008282546200026d91906200057b565b90915550620002ed9050565b6001600160a01b03831660009081526002602052604090205481811015620002ce5760405163391434e360e21b81526001600160a01b03851660048201526024810182905260448101839052606401620000c6565b6001600160a01b03841660009081526002602052604090209082900390555b6001600160a01b0382166200030b576004805482900390556200032a565b6001600160a01b03821660009081526002602052604090208054820190555b816001600160a01b0316836001600160a01b03167fddf252ad1be2c89b69c2b068fc378daa952ba7f163c4a11628f55a4df523b3ef836040516200037091815260200190565b60405180910390a3505050565b634e487b7160e01b600052604160045260246000fd5b600181811c90821680620003a857607f821691505b602082108103620003c957634e487b7160e01b600052602260045260246000fd5b50919050565b601f8211156200041f576000816000526020600020601f850160051c81016020861015620003fa5750805b601f850160051c820191505b818110156200041b5782815560010162000406565b5050505b505050565b81516001600160401b038111156200044057620004406200037d565b620004588162000451845462000393565b84620003cf565b602080601f831160018114620004905760008415620004775750858301515b600019600386901b1c1916600185901b1785556200041b565b600085815260208120601f198616915b82811015620004c157888601518255948401946001909101908401620004a0565b5085821015620004e05787850151600019600388901b60f8161c191681555b5050505050600190811b01905550565b80516001600160a01b03811681146200050857600080fd5b919050565b600080604083850312156200052157600080fd5b6200052c83620004f0565b91506200053c60208401620004f0565b90509250929050565b634e487b7160e01b600052601160045260246000fd5b808202811582820484141762000575576200057562000545565b92915050565b8082018082111562000575576200057562000545565b608051611d90620005d7600039600081816102f501528181610625015281816107e801528181610c4601528181610d44015281816111a001526112570152611d906000f3fe6080604052600436106101815760003560e01c80637d25a05e116100d1578063a9059cbb1161008a578063d613333111610064578063d6133331146104d1578063dd62ed3e146104f1578063f2fde38b14610537578063ff7bd03d1461055757600080fd5b8063a9059cbb14610464578063bb0b6a5314610484578063ca5eb5e1146104b157600080fd5b80637d25a05e1461037a57806382413eac146103b55780638da5cb5b146103e457806395d89b41146104025780639dc29fac14610417578063a45e96a01461043757600080fd5b806323b872dd1161013e57806340c10f191161011857806340c10f19146102c35780635e280f11146102e357806370a082311461032f578063715018a61461036557600080fd5b806323b872dd14610267578063313ce567146102875780633400288b146102a357600080fd5b806304d841081461018657806306fdde03146101cc578063095ea7b3146101e157806313137d651461021157806317442b701461022657806318160ddd14610248575b600080fd5b34801561019257600080fd5b506101b6604051806040016040528060048152602001630535741560e41b81525081565b6040516101c391906114b2565b60405180910390f35b3480156101d857600080fd5b506101b6610577565b3480156101ed57600080fd5b506102016101fc3660046114da565b610609565b60405190151581526020016101c3565b61022461021f366004611566565b610623565b005b34801561023257600080fd5b50604080516001815260026020820152016101c3565b34801561025457600080fd5b506004545b6040519081526020016101c3565b34801561027357600080fd5b50610201610282366004611605565b6106e3565b34801561029357600080fd5b50604051601281526020016101c3565b3480156102af57600080fd5b506102246102be36600461165f565b610709565b3480156102cf57600080fd5b506102246102de3660046114da565b61071f565b3480156102ef57600080fd5b506103177f000000000000000000000000000000000000000000000000000000000000000081565b6040516001600160a01b0390911681526020016101c3565b34801561033b57600080fd5b5061025961034a36600461167b565b6001600160a01b031660009081526002602052604090205490565b34801561037157600080fd5b50610224610731565b34801561038657600080fd5b5061039d61039536600461165f565b600092915050565b6040516001600160401b0390911681526020016101c3565b3480156103c157600080fd5b506102016103d0366004611698565b6001600160a01b0381163014949350505050565b3480156103f057600080fd5b506000546001600160a01b0316610317565b34801561040e57600080fd5b506101b6610745565b34801561042357600080fd5b506102246104323660046114da565b610754565b34801561044357600080fd5b506104576104523660046117b7565b61075e565b6040516101c3919061186e565b34801561047057600080fd5b5061020161047f3660046114da565b6107b3565b34801561049057600080fd5b5061025961049f366004611885565b60016020526000908152604090205481565b3480156104bd57600080fd5b506102246104cc36600461167b565b6107c1565b6104e46104df3660046118a0565b610847565b6040516101c39190611936565b3480156104fd57600080fd5b5061025961050c366004611978565b6001600160a01b03918216600090815260036020908152604080832093909416825291909152205490565b34801561054357600080fd5b5061022461055236600461167b565b6108fe565b34801561056357600080fd5b506102016105723660046119b1565b61093c565b606060058054610586906119cd565b80601f01602080910402602001604051908101604052809291908181526020018280546105b2906119cd565b80156105ff5780601f106105d4576101008083540402835291602001916105ff565b820191906000526020600020905b8154815290600101906020018083116105e257829003601f168201915b5050505050905090565b600033610617818585610972565b60019150505b92915050565b7f00000000000000000000000000000000000000000000000000000000000000006001600160a01b03163314610673576040516391ac5e4f60e01b81523360048201526024015b60405180910390fd5b6020870180359061068d90610688908a611885565b610984565b146106cb5761069f6020880188611885565b60405163309afaf360e21b815263ffffffff90911660048201526020880135602482015260440161066a565b6106da878787878787876109c0565b50505050505050565b6000336106f1858285610a15565b6106fc858585610a93565b60019150505b9392505050565b610711610af2565b61071b8282610b1f565b5050565b610727610af2565b61071b8282610b74565b610739610af2565b6107436000610baa565b565b606060068054610586906119cd565b61071b8282610bfa565b6040805180820190915260008082526020820152600085878660405160200161078993929190611a01565b60405160208183030381529060405290506107a78882866000610c30565b98975050505050505050565b600033610617818585610a93565b6107c9610af2565b60405163ca5eb5e160e01b81526001600160a01b0382811660048301527f0000000000000000000000000000000000000000000000000000000000000000169063ca5eb5e190602401600060405180830381600087803b15801561082c57600080fd5b505af1158015610840573d6000803e3d6000fd5b5050505050565b61084f61141b565b600085878660405160200161086693929190611a01565b60408051601f198184030181526020601f870181900481028401810190925285835292506108ca918a91849190889088908190840183828082843760009201829052506040805180820190915234815260208101919091529250339150610d119050565b91506108d585610e1c565b156108f257600087116108e857506108f4565b6108f28688610bfa565b505b9695505050505050565b610906610af2565b6001600160a01b03811661093057604051631e4fbdf760e01b81526000600482015260240161066a565b61093981610baa565b50565b60006020820180359060019083906109549086611885565b63ffffffff1681526020810191909152604001600020541492915050565b61097f8383836001610e90565b505050565b63ffffffff81166000908152600160205260408120548061061d5760405163f6ff4fb760e01b815263ffffffff8416600482015260240161066a565b6109cc84860186611a28565b600a600060088160096109df8682611ad0565b5085919050558491906101000a8154816001600160a01b0302191690836001600160a01b031602179055505050506106da610f65565b6001600160a01b038381166000908152600360209081526040808320938616835292905220546000198114610a8d5781811015610a7e57604051637dc7a0d960e11b81526001600160a01b0384166004820152602481018290526044810183905260640161066a565b610a8d84848484036000610e90565b50505050565b6001600160a01b038316610abd57604051634b637e8f60e11b81526000600482015260240161066a565b6001600160a01b038216610ae75760405163ec442f0560e01b81526000600482015260240161066a565b61097f83838361104a565b6000546001600160a01b031633146107435760405163118cdaa760e01b815233600482015260240161066a565b63ffffffff8216600081815260016020908152604091829020849055815192835282018390527f238399d427b947898edb290f5ff0f9109849b1c3ba196a42e35f00c50a54b98b910160405180910390a15050565b6001600160a01b038216610b9e5760405163ec442f0560e01b81526000600482015260240161066a565b61071b6000838361104a565b600080546001600160a01b038381166001600160a01b0319831681178455604051919092169283917f8be0079c531659141344cd1fd0a4f28419497f9722a3daafe3b4186f6b6457e09190a35050565b6001600160a01b038216610c2457604051634b637e8f60e11b81526000600482015260240161066a565b61071b8260008361104a565b60408051808201909152600080825260208201527f00000000000000000000000000000000000000000000000000000000000000006001600160a01b031663ddc28c586040518060a001604052808863ffffffff168152602001610c9389610984565b8152602001878152602001868152602001851515815250306040518363ffffffff1660e01b8152600401610cc8929190611b8f565b6040805180830381865afa158015610ce4573d6000803e3d6000fd5b505050506040513d601f19601f82011682018060405250810190610d089190611c56565b95945050505050565b610d1961141b565b6000610d288460000151611174565b602085015190915015610d4257610d42846020015161119c565b7f00000000000000000000000000000000000000000000000000000000000000006001600160a01b0316632637a450826040518060a001604052808b63ffffffff168152602001610d928c610984565b81526020018a815260200189815260200160008960200151111515815250866040518463ffffffff1660e01b8152600401610dce929190611b8f565b60806040518083038185885af1158015610dec573d6000803e3d6000fd5b50505050506040513d601f19601f82011682018060405250810190610e119190611c72565b979650505050505050565b6000604051806040016040528060048152602001630535741560e41b815250604051602001610e4b9190611ce3565b6040516020818303038152906040528051906020012082604051602001610e729190611ce3565b60405160208183030381529060405280519060200120149050919050565b6001600160a01b038416610eba5760405163e602df0560e01b81526000600482015260240161066a565b6001600160a01b038316610ee457604051634a1406b160e11b81526000600482015260240161066a565b6001600160a01b0380851660009081526003602090815260408083209387168352929052208290558015610a8d57826001600160a01b0316846001600160a01b03167f8c5be1e5ebec7d5bd14f71427d1e84f3dd0314c0f7b2291e5b200ac8c7c3b92584604051610f5791815260200190565b60405180910390a350505050565b610ff860098054610f75906119cd565b80601f0160208091040260200160405190810160405280929190818152602001828054610fa1906119cd565b8015610fee5780601f10610fc357610100808354040283529160200191610fee565b820191906000526020600020905b815481529060010190602001808311610fd157829003601f168201915b5050505050610e1c565b1561101657600a54600854611016916001600160a01b031690610b74565b6040805160208101909152600081526009906110329082611ad0565b50600a80546001600160a01b03191690556000600855565b6001600160a01b03831661107557806004600082825461106a9190611cff565b909155506110e79050565b6001600160a01b038316600090815260026020526040902054818110156110c85760405163391434e360e21b81526001600160a01b0385166004820152602481018290526044810183905260640161066a565b6001600160a01b03841660009081526002602052604090209082900390555b6001600160a01b03821661110357600480548290039055611122565b6001600160a01b03821660009081526002602052604090208054820190555b816001600160a01b0316836001600160a01b03167fddf252ad1be2c89b69c2b068fc378daa952ba7f163c4a11628f55a4df523b3ef8360405161116791815260200190565b60405180910390a3505050565b6000813414611198576040516304fb820960e51b815234600482015260240161066a565b5090565b60007f00000000000000000000000000000000000000000000000000000000000000006001600160a01b031663e4fe1d946040518163ffffffff1660e01b8152600401602060405180830381865afa1580156111fc573d6000803e3d6000fd5b505050506040513d601f19601f820116820180604052508101906112209190611d20565b90506001600160a01b038116611249576040516329b99a9560e11b815260040160405180910390fd5b6040805133602482018190527f00000000000000000000000000000000000000000000000000000000000000006001600160a01b03818116604485015260648085018890528551808603909101815260849094019094526020830180516001600160e01b03166323b872dd60e01b17905261071b938516928690610a8d90859060006112d58383611323565b905080516000141580156112fa5750808060200190518101906112f89190611d3d565b155b1561097f57604051635274afe760e01b81526001600160a01b038416600482015260240161066a565b60606107028383600084600080856001600160a01b031684866040516113499190611ce3565b60006040518083038185875af1925050503d8060008114611386576040519150601f19603f3d011682016040523d82523d6000602084013e61138b565b606091505b50915091506108f48683836060826113ab576113a6826113f2565b610702565b81511580156113c257506001600160a01b0384163b155b156113eb57604051639996b31560e01b81526001600160a01b038516600482015260240161066a565b5080610702565b8051156114025780518082602001fd5b604051630a12f52160e11b815260040160405180910390fd5b60405180606001604052806000801916815260200160006001600160401b0316815260200161145d604051806040016040528060008152602001600081525090565b905290565b60005b8381101561147d578181015183820152602001611465565b50506000910152565b6000815180845261149e816020860160208601611462565b601f01601f19169290920160200192915050565b6020815260006107026020830184611486565b6001600160a01b038116811461093957600080fd5b600080604083850312156114ed57600080fd5b82356114f8816114c5565b946020939093013593505050565b60006060828403121561151857600080fd5b50919050565b60008083601f84011261153057600080fd5b5081356001600160401b0381111561154757600080fd5b60208301915083602082850101111561155f57600080fd5b9250929050565b600080600080600080600060e0888a03121561158157600080fd5b61158b8989611506565b96506060880135955060808801356001600160401b03808211156115ae57600080fd5b6115ba8b838c0161151e565b909750955060a08a013591506115cf826114c5565b90935060c089013590808211156115e557600080fd5b506115f28a828b0161151e565b989b979a50959850939692959293505050565b60008060006060848603121561161a57600080fd5b8335611625816114c5565b92506020840135611635816114c5565b929592945050506040919091013590565b803563ffffffff8116811461165a57600080fd5b919050565b6000806040838503121561167257600080fd5b6114f883611646565b60006020828403121561168d57600080fd5b8135610702816114c5565b60008060008060a085870312156116ae57600080fd5b6116b88686611506565b935060608501356001600160401b038111156116d357600080fd5b6116df8782880161151e565b90945092505060808501356116f3816114c5565b939692955090935050565b634e487b7160e01b600052604160045260246000fd5b60006001600160401b038084111561172e5761172e6116fe565b604051601f8501601f19908116603f01168101908282118183101715611756576117566116fe565b8160405280935085815286868601111561176f57600080fd5b858560208301376000602087830101525050509392505050565b600082601f83011261179a57600080fd5b61070283833560208501611714565b801515811461093957600080fd5b60008060008060008060c087890312156117d057600080fd5b6117d987611646565b95506020870135945060408701356117f0816114c5565b935060608701356001600160401b038082111561180c57600080fd5b6118188a838b01611789565b9450608089013591508082111561182e57600080fd5b508701601f8101891361184057600080fd5b61184f89823560208401611714565b92505060a0870135611860816117a9565b809150509295509295509295565b81518152602080830151908201526040810161061d565b60006020828403121561189757600080fd5b61070282611646565b60008060008060008060a087890312156118b957600080fd5b6118c287611646565b95506020870135945060408701356118d9816114c5565b935060608701356001600160401b03808211156118f557600080fd5b6119018a838b01611789565b9450608089013591508082111561191757600080fd5b5061192489828a0161151e565b979a9699509497509295939492505050565b6000608082019050825182526001600160401b0360208401511660208301526040830151611971604084018280518252602090810151910152565b5092915050565b6000806040838503121561198b57600080fd5b8235611996816114c5565b915060208301356119a6816114c5565b809150509250929050565b6000606082840312156119c357600080fd5b6107028383611506565b600181811c908216806119e157607f821691505b60208210810361151857634e487b7160e01b600052602260045260246000fd5b60018060a01b0384168152826020820152606060408201526000610d086060830184611486565b600080600060608486031215611a3d57600080fd5b8335611a48816114c5565b92506020840135915060408401356001600160401b03811115611a6a57600080fd5b611a7686828701611789565b9150509250925092565b601f82111561097f576000816000526020600020601f850160051c81016020861015611aa95750805b601f850160051c820191505b81811015611ac857828155600101611ab5565b505050505050565b81516001600160401b03811115611ae957611ae96116fe565b611afd81611af784546119cd565b84611a80565b602080601f831160018114611b325760008415611b1a5750858301515b600019600386901b1c1916600185901b178555611ac8565b600085815260208120601f198616915b82811015611b6157888601518255948401946001909101908401611b42565b5085821015611b7f5787850151600019600388901b60f8161c191681555b5050505050600190811b01905550565b6040815263ffffffff8351166040820152602083015160608201526000604084015160a06080840152611bc560e0840182611486565b90506060850151603f198483030160a0850152611be28282611486565b60809690960151151560c08501525050506001600160a01b039190911660209091015290565b600060408284031215611c1a57600080fd5b604051604081018181106001600160401b0382111715611c3c57611c3c6116fe565b604052825181526020928301519281019290925250919050565b600060408284031215611c6857600080fd5b6107028383611c08565b600060808284031215611c8457600080fd5b604051606081016001600160401b038282108183111715611ca757611ca76116fe565b8160405284518352602085015191508082168214611cc457600080fd5b506020820152611cd78460408501611c08565b60408201529392505050565b60008251611cf5818460208701611462565b9190910192915050565b8082018082111561061d57634e487b7160e01b600052601160045260246000fd5b600060208284031215611d3257600080fd5b8151610702816114c5565b600060208284031215611d4f57600080fd5b8151610702816117a956fea2646970667358221220f98caa243b416b4d3bcfedd34989f05371dbfddea32979596b57a4ffeeefcb2d64736f6c63430008160033",
  "devdoc": {
    "errors": {
      "AddressEmptyCode(address)": [
        {
          "details": "There's no code at `target` (it is not a contract)."
        }
      ],
      "AddressInsufficientBalance(address)": [
        {
          "details": "The ETH balance of the account is not enough to perform the operation."
        }
      ],
      "ERC20InsufficientAllowance(address,uint256,uint256)": [
        {
          "details": "Indicates a failure with the `spender`s `allowance`. Used in transfers.",
          "params": {
            "allowance": "Amount of tokens a `spender` is allowed to operate with.",
            "needed": "Minimum amount required to perform a transfer.",
            "spender": "Address that may be allowed to operate on tokens without being their owner."
          }
        }
      ],
      "ERC20InsufficientBalance(address,uint256,uint256)": [
        {
          "details": "Indicates an error related to the current `balance` of a `sender`. Used in transfers.",
          "params": {
            "balance": "Current balance for the interacting account.",
            "needed": "Minimum amount required to perform a transfer.",
            "sender": "Address whose tokens are being transferred."
          }
        }
      ],
      "ERC20InvalidApprover(address)": [
        {
          "details": "Indicates a failure with the `approver` of a token to be approved. Used in approvals.",
          "params": {
            "approver": "Address initiating an approval operation."
          }
        }
      ],
      "ERC20InvalidReceiver(address)": [
        {
          "details": "Indicates a failure with the token `receiver`. Used in transfers.",
          "params": {
            "receiver": "Address to which tokens are being transferred."
          }
        }
      ],
      "ERC20InvalidSender(address)": [
        {
          "details": "Indicates a failure with the token `sender`. Used in transfers.",
          "params": {
            "sender": "Address whose tokens are being transferred."
          }
        }
      ],
      "ERC20InvalidSpender(address)": [
        {
          "details": "Indicates a failure with the `spender` to be approved. Used in approvals.",
          "params": {
            "spender": "Address that may be allowed to operate on tokens without being their owner."
          }
        }
      ],
      "FailedInnerCall()": [
        {
          "details": "A call to an address target failed. The target may have reverted."
        }
      ],
      "OwnableInvalidOwner(address)": [
        {
          "details": "The owner is not a valid owner account. (eg. `address(0)`)"
        }
      ],
      "OwnableUnauthorizedAccount(address)": [
        {
          "details": "The caller account is not authorized to perform an operation."
        }
      ],
      "SafeERC20FailedOperation(address)": [
        {
          "details": "An operation with an ERC20 token failed."
        }
      ]
    },
    "events": {
      "Approval(address,address,uint256)": {
        "details": "Emitted when the allowance of a `spender` for an `owner` is set by a call to {approve}. `value` is the new allowance."
      },
      "Transfer(address,address,uint256)": {
        "details": "Emitted when `value` tokens are moved from one account (`from`) to another (`to`). Note that `value` may be zero."
      }
    },
    "kind": "dev",
    "methods": {
      "allowInitializePath((uint32,bytes32,uint64))": {
        "details": "This indicates to the endpoint that the OApp has enabled msgs for this particular path to be received.This defaults to assuming if a peer has been set, its initialized. Can be overridden by the OApp if there is other logic to determine this.",
        "params": {
          "origin": "The origin information containing the source endpoint and sender address."
        },
        "returns": {
          "_0": "Whether the path has been initialized."
        }
      },
      "allowance(address,address)": {
        "details": "See {IERC20-allowance}."
      },
      "approve(address,uint256)": {
        "details": "See {IERC20-approve}. NOTE: If `value` is the maximum `uint256`, the allowance is not updated on `transferFrom`. This is semantically equivalent to an infinite approval. Requirements: - `spender` cannot be the zero address."
      },
      "balanceOf(address)": {
        "details": "See {IERC20-balanceOf}."
      },
      "decimals()": {
        "details": "Returns the number of decimals used to get its user representation. For example, if `decimals` equals `2`, a balance of `505` tokens should be displayed to a user as `5.05` (`505 / 10 ** 2`). Tokens usually opt for a value of 18, imitating the relationship between Ether and Wei. This is the default value returned by this function, unless it's overridden. NOTE: This information is only used for _display_ purposes: it in no way affects any of the arithmetic of the contract, including {IERC20-balanceOf} and {IERC20-transfer}."
      },
      "isComposeMsgSender((uint32,bytes32,uint64),bytes,address)": {
        "details": "_origin The origin information containing the source endpoint and sender address.  - srcEid: The source chain endpoint ID.  - sender: The sender address on the src chain.  - nonce: The nonce of the message._message The lzReceive payload.Applications can optionally choose to implement separate composeMsg senders that are NOT the bridging layer.The default sender IS the OAppReceiver implementer.",
        "params": {
          "_sender": "The sender address."
        },
        "returns": {
          "_0": "isSender Is a valid sender."
        }
      },
      "lzReceive((uint32,bytes32,uint64),bytes32,bytes,address,bytes)": {
        "details": "Entry point for receiving messages or packets from the endpoint.Entry point for receiving msg/packet from the LayerZero endpoint.",
        "params": {
          "_executor": "The address of the executor for the received message.",
          "_extraData": "Additional arbitrary data provided by the corresponding executor.",
          "_guid": "The unique identifier for the received LayerZero message.",
          "_message": "The payload of the received message.",
          "_origin": "The origin information containing the source endpoint and sender address.  - srcEid: The source chain endpoint ID.  - sender: The sender address on the src chain.  - nonce: The nonce of the message."
        }
      },
      "name()": {
        "details": "Returns the name of the token."
      },
      "nextNonce(uint32,bytes32)": {
        "details": "_srcEid The source endpoint ID._sender The sender address.The path nonce starts from 1. If 0 is returned it means that there is NO nonce ordered enforcement.Is required by the off-chain executor to determine the OApp expects msg execution is ordered.This is also enforced by the OApp.By default this is NOT enabled. ie. nextNonce is hardcoded to return 0.",
        "returns": {
          "nonce": "The next nonce."
        }
      },
      "oAppVersion()": {
        "returns": {
          "receiverVersion": "The version of the OAppReceiver.sol implementation.",
          "senderVersion": "The version of the OAppSender.sol implementation."
        }
      },
      "owner()": {
        "details": "Returns the address of the current owner."
      },
      "renounceOwnership()": {
        "details": "Leaves the contract without owner. It will not be possible to call `onlyOwner` functions. Can only be called by the current owner. NOTE: Renouncing ownership will leave the contract without an owner, thereby disabling any functionality that is only available to the owner."
      },
      "setDelegate(address)": {
        "details": "Only the owner/admin of the OApp can call this function.Provides the ability for a delegate to set configs, on behalf of the OApp, directly on the Endpoint contract.",
        "params": {
          "_delegate": "The address of the delegate to be set."
        }
      },
      "setPeer(uint32,bytes32)": {
        "details": "Only the owner/admin of the OApp can call this function.Indicates that the peer is trusted to send LayerZero messages to this OApp.Set this to bytes32(0) to remove the peer address.Peer is a bytes32 to accommodate non-evm chains.",
        "params": {
          "_eid": "The endpoint ID.",
          "_peer": "The address of the peer to be associated with the corresponding endpoint."
        }
      },
      "symbol()": {
        "details": "Returns the symbol of the token, usually a shorter version of the name."
      },
      "totalSupply()": {
        "details": "See {IERC20-totalSupply}."
      },
      "transfer(address,uint256)": {
        "details": "See {IERC20-transfer}. Requirements: - `to` cannot be the zero address. - the caller must have a balance of at least `value`."
      },
      "transferFrom(address,address,uint256)": {
        "details": "See {IERC20-transferFrom}. Emits an {Approval} event indicating the updated allowance. This is not required by the EIP. See the note at the beginning of {ERC20}. NOTE: Does not update the allowance if the current allowance is the maximum `uint256`. Requirements: - `from` and `to` cannot be the zero address. - `from` must have a balance of at least `value`. - the caller must have allowance for ``from``'s tokens of at least `value`."
      },
      "transferOwnership(address)": {
        "details": "Transfers ownership of the contract to a new account (`newOwner`). Can only be called by the current owner."
      }
    },
    "version": 1
  },
  "userdoc": {
    "kind": "user",
    "methods": {
      "allowInitializePath((uint32,bytes32,uint64))": {
        "notice": "Checks if the path initialization is allowed based on the provided origin."
      },
      "endpoint()": {
        "notice": "Retrieves the LayerZero endpoint associated with the OApp."
      },
      "isComposeMsgSender((uint32,bytes32,uint64),bytes,address)": {
        "notice": "Indicates whether an address is an approved composeMsg sender to the Endpoint."
      },
      "nextNonce(uint32,bytes32)": {
        "notice": "Retrieves the next nonce for a given source endpoint and sender address."
      },
      "oAppVersion()": {
        "notice": "Retrieves the OApp version information."
      },
      "peers(uint32)": {
        "notice": "Retrieves the peer (OApp) associated with a corresponding endpoint."
      },
      "setDelegate(address)": {
        "notice": "Sets the delegate address for the OApp."
      },
      "setPeer(uint32,bytes32)": {
        "notice": "Sets the peer address (OApp instance) for a corresponding endpoint."
      }
    },
    "version": 1
  },
  "storageLayout": {
    "storage": [
      {
        "astId": 1327,
        "contract": "contracts/Swap/Token2.sol:Token2",
        "label": "_owner",
        "offset": 0,
        "slot": "0",
        "type": "t_address"
      },
      {
        "astId": 785,
        "contract": "contracts/Swap/Token2.sol:Token2",
        "label": "peers",
        "offset": 0,
        "slot": "1",
        "type": "t_mapping(t_uint32,t_bytes32)"
      },
      {
        "astId": 1626,
        "contract": "contracts/Swap/Token2.sol:Token2",
        "label": "_balances",
        "offset": 0,
        "slot": "2",
        "type": "t_mapping(t_address,t_uint256)"
      },
      {
        "astId": 1632,
        "contract": "contracts/Swap/Token2.sol:Token2",
        "label": "_allowances",
        "offset": 0,
        "slot": "3",
        "type": "t_mapping(t_address,t_mapping(t_address,t_uint256))"
      },
      {
        "astId": 1634,
        "contract": "contracts/Swap/Token2.sol:Token2",
        "label": "_totalSupply",
        "offset": 0,
        "slot": "4",
        "type": "t_uint256"
      },
      {
        "astId": 1636,
        "contract": "contracts/Swap/Token2.sol:Token2",
        "label": "_name",
        "offset": 0,
        "slot": "5",
        "type": "t_string_storage"
      },
      {
        "astId": 1638,
        "contract": "contracts/Swap/Token2.sol:Token2",
        "label": "_symbol",
        "offset": 0,
        "slot": "6",
        "type": "t_string_storage"
      },
      {
        "astId": 2852,
        "contract": "contracts/Swap/Token2.sol:Token2",
        "label": "dec",
        "offset": 0,
        "slot": "7",
        "type": "t_uint256"
      },
      {
        "astId": 2855,
        "contract": "contracts/Swap/Token2.sol:Token2",
        "label": "_number",
        "offset": 0,
        "slot": "8",
        "type": "t_uint256"
      },
      {
        "astId": 2858,
        "contract": "contracts/Swap/Token2.sol:Token2",
        "label": "_message",
        "offset": 0,
        "slot": "9",
        "type": "t_string_storage"
      },
      {
        "astId": 2864,
        "contract": "contracts/Swap/Token2.sol:Token2",
        "label": "_addr",
        "offset": 0,
        "slot": "10",
        "type": "t_address"
      }
    ],
    "types": {
      "t_address": {
        "encoding": "inplace",
        "label": "address",
        "numberOfBytes": "20"
      },
      "t_bytes32": {
        "encoding": "inplace",
        "label": "bytes32",
        "numberOfBytes": "32"
      },
      "t_mapping(t_address,t_mapping(t_address,t_uint256))": {
        "encoding": "mapping",
        "key": "t_address",
        "label": "mapping(address => mapping(address => uint256))",
        "numberOfBytes": "32",
        "value": "t_mapping(t_address,t_uint256)"
      },
      "t_mapping(t_address,t_uint256)": {
        "encoding": "mapping",
        "key": "t_address",
        "label": "mapping(address => uint256)",
        "numberOfBytes": "32",
        "value": "t_uint256"
      },
      "t_mapping(t_uint32,t_bytes32)": {
        "encoding": "mapping",
        "key": "t_uint32",
        "label": "mapping(uint32 => bytes32)",
        "numberOfBytes": "32",
        "value": "t_bytes32"
      },
      "t_string_storage": {
        "encoding": "bytes",
        "label": "string",
        "numberOfBytes": "32"
      },
      "t_uint256": {
        "encoding": "inplace",
        "label": "uint256",
        "numberOfBytes": "32"
      },
      "t_uint32": {
        "encoding": "inplace",
        "label": "uint32",
        "numberOfBytes": "4"
      }
    }
  }
}