{
  "_format": "hh-sol-artifact-1",
  "contractName": "LiquidityPool",
  "sourceName": "contracts/liquidity_pool.sol",
  "abi": [
    {
      "inputs": [
        {
          "internalType": "address",
          "name": "_token1",
          "type": "address"
        },
        {
          "internalType": "address",
          "name": "_token2",
          "type": "address"
        }
      ],
      "stateMutability": "nonpayable",
      "type": "constructor"
    },
    {
      "inputs": [
        {
          "internalType": "address",
          "name": "",
          "type": "address"
        },
        {
          "internalType": "contract IERC20",
          "name": "",
          "type": "address"
        }
      ],
      "name": "liquidity",
      "outputs": [
        {
          "internalType": "uint256",
          "name": "",
          "type": "uint256"
        }
      ],
      "stateMutability": "view",
      "type": "function"
    },
    {
      "inputs": [],
      "name": "priceRatio",
      "outputs": [
        {
          "internalType": "uint256",
          "name": "",
          "type": "uint256"
        }
      ],
      "stateMutability": "view",
      "type": "function"
    },
    {
      "inputs": [
        {
          "internalType": "uint256",
          "name": "amount1",
          "type": "uint256"
        }
      ],
      "name": "provide_token1",
      "outputs": [],
      "stateMutability": "nonpayable",
      "type": "function"
    },
    {
      "inputs": [
        {
          "internalType": "uint256",
          "name": "amount2",
          "type": "uint256"
        }
      ],
      "name": "provide_token2",
      "outputs": [],
      "stateMutability": "nonpayable",
      "type": "function"
    },
    {
      "inputs": [],
      "name": "reserve1",
      "outputs": [
        {
          "internalType": "uint256",
          "name": "",
          "type": "uint256"
        }
      ],
      "stateMutability": "view",
      "type": "function"
    },
    {
      "inputs": [],
      "name": "reserve2",
      "outputs": [
        {
          "internalType": "uint256",
          "name": "",
          "type": "uint256"
        }
      ],
      "stateMutability": "view",
      "type": "function"
    },
    {
      "inputs": [
        {
          "internalType": "uint256",
          "name": "amount1In",
          "type": "uint256"
        }
      ],
      "name": "swapToken1",
      "outputs": [],
      "stateMutability": "nonpayable",
      "type": "function"
    },
    {
      "inputs": [
        {
          "internalType": "uint256",
          "name": "amount2In",
          "type": "uint256"
        }
      ],
      "name": "swapToken2",
      "outputs": [],
      "stateMutability": "nonpayable",
      "type": "function"
    },
    {
      "inputs": [],
      "name": "token1",
      "outputs": [
        {
          "internalType": "contract IERC20",
          "name": "",
          "type": "address"
        }
      ],
      "stateMutability": "view",
      "type": "function"
    },
    {
      "inputs": [],
      "name": "token2",
      "outputs": [
        {
          "internalType": "contract IERC20",
          "name": "",
          "type": "address"
        }
      ],
      "stateMutability": "view",
      "type": "function"
    },
    {
      "inputs": [
        {
          "internalType": "uint256",
          "name": "amount",
          "type": "uint256"
        }
      ],
      "name": "withdraw_token1",
      "outputs": [],
      "stateMutability": "nonpayable",
      "type": "function"
    },
    {
      "inputs": [
        {
          "internalType": "uint256",
          "name": "amount",
          "type": "uint256"
        }
      ],
      "name": "withdraw_token2",
      "outputs": [],
      "stateMutability": "nonpayable",
      "type": "function"
    }
  ],
  "bytecode": "0x60806040526000600255600060035560016004553480156200002057600080fd5b50604051620014b5380380620014b5833981810160405281019062000046919062000139565b816000806101000a81548173ffffffffffffffffffffffffffffffffffffffff021916908373ffffffffffffffffffffffffffffffffffffffff16021790555080600160006101000a81548173ffffffffffffffffffffffffffffffffffffffff021916908373ffffffffffffffffffffffffffffffffffffffff160217905550505062000180565b600080fd5b600073ffffffffffffffffffffffffffffffffffffffff82169050919050565b60006200010182620000d4565b9050919050565b6200011381620000f4565b81146200011f57600080fd5b50565b600081519050620001338162000108565b92915050565b60008060408385031215620001535762000152620000cf565b5b6000620001638582860162000122565b9250506020620001768582860162000122565b9150509250929050565b61132580620001906000396000f3fe608060405234801561001057600080fd5b50600436106100b45760003560e01c8063980d69d311610071578063980d69d314610169578063b221728114610185578063d21220a7146101b5578063efce6a47146101d3578063f4291b90146101ef578063f4cb34d41461020b576100b4565b80630aa2f420146100b957806325be124e146100d75780633977006f146100f55780635a76f25e146101115780635c0b9a2b1461012f5780638dbe3f391461014d575b600080fd5b6100c1610227565b6040516100ce9190610e00565b60405180910390f35b6100df61022d565b6040516100ec9190610e9a565b60405180910390f35b61010f600480360381019061010a9190610ee6565b610253565b005b6101196103c4565b6040516101269190610e00565b60405180910390f35b6101376103ca565b6040516101449190610e00565b60405180910390f35b61016760048036038101906101629190610ee6565b6103d0565b005b610183600480360381019061017e9190610ee6565b6105ed565b005b61019f600480360381019061019a9190610f8f565b6107ff565b6040516101ac9190610e00565b60405180910390f35b6101bd610824565b6040516101ca9190610e9a565b60405180910390f35b6101ed60048036038101906101e89190610ee6565b610848565b005b61020960048036038101906102049190610ee6565b610a61565b005b61022560048036038101906102209190610ee6565b610bd5565b005b60045481565b600160009054906101000a900473ffffffffffffffffffffffffffffffffffffffff1681565b60008054906101000a900473ffffffffffffffffffffffffffffffffffffffff1673ffffffffffffffffffffffffffffffffffffffff166323b872dd3330846040518463ffffffff1660e01b81526004016102b093929190610fde565b6020604051808303816000875af11580156102cf573d6000803e3d6000fd5b505050506040513d601f19601f820116820180604052508101906102f3919061104d565b50806002600082825461030691906110a9565b9250508190555080600560003373ffffffffffffffffffffffffffffffffffffffff1673ffffffffffffffffffffffffffffffffffffffff16815260200190815260200160002060008060009054906101000a900473ffffffffffffffffffffffffffffffffffffffff1673ffffffffffffffffffffffffffffffffffffffff1673ffffffffffffffffffffffffffffffffffffffff16815260200190815260200160002060008282546103ba91906110a9565b9250508190555050565b60025481565b60035481565b80600560003373ffffffffffffffffffffffffffffffffffffffff1673ffffffffffffffffffffffffffffffffffffffff1681526020019081526020016000206000600160009054906101000a900473ffffffffffffffffffffffffffffffffffffffff1673ffffffffffffffffffffffffffffffffffffffff1673ffffffffffffffffffffffffffffffffffffffff16815260200190815260200160002054101561047b57600080fd5b600160009054906101000a900473ffffffffffffffffffffffffffffffffffffffff1673ffffffffffffffffffffffffffffffffffffffff1663a9059cbb33836040518363ffffffff1660e01b81526004016104d89291906110dd565b6020604051808303816000875af11580156104f7573d6000803e3d6000fd5b505050506040513d601f19601f8201168201806040525081019061051b919061104d565b50806003600082825461052e9190611106565b9250508190555080600560003373ffffffffffffffffffffffffffffffffffffffff1673ffffffffffffffffffffffffffffffffffffffff1681526020019081526020016000206000600160009054906101000a900473ffffffffffffffffffffffffffffffffffffffff1673ffffffffffffffffffffffffffffffffffffffff1673ffffffffffffffffffffffffffffffffffffffff16815260200190815260200160002060008282546105e39190611106565b9250508190555050565b60008111610630576040517f08c379a000000000000000000000000000000000000000000000000000000000815260040161062790611197565b60405180910390fd5b60006004548261064091906111e6565b9050600254811115610687576040517f08c379a000000000000000000000000000000000000000000000000000000000815260040161067e90611263565b60405180910390fd5b600160009054906101000a900473ffffffffffffffffffffffffffffffffffffffff1673ffffffffffffffffffffffffffffffffffffffff166323b872dd3330856040518463ffffffff1660e01b81526004016106e693929190610fde565b6020604051808303816000875af1158015610705573d6000803e3d6000fd5b505050506040513d601f19601f82011682018060405250810190610729919061104d565b5060008054906101000a900473ffffffffffffffffffffffffffffffffffffffff1673ffffffffffffffffffffffffffffffffffffffff1663a9059cbb33836040518363ffffffff1660e01b81526004016107859291906110dd565b6020604051808303816000875af11580156107a4573d6000803e3d6000fd5b505050506040513d601f19601f820116820180604052508101906107c8919061104d565b5081600360008282546107db91906110a9565b9250508190555080600260008282546107f49190611106565b925050819055505050565b6005602052816000526040600020602052806000526040600020600091509150505481565b60008054906101000a900473ffffffffffffffffffffffffffffffffffffffff1681565b80600560003373ffffffffffffffffffffffffffffffffffffffff1673ffffffffffffffffffffffffffffffffffffffff16815260200190815260200160002060008060009054906101000a900473ffffffffffffffffffffffffffffffffffffffff1673ffffffffffffffffffffffffffffffffffffffff1673ffffffffffffffffffffffffffffffffffffffff1681526020019081526020016000205410156108f257600080fd5b60008054906101000a900473ffffffffffffffffffffffffffffffffffffffff1673ffffffffffffffffffffffffffffffffffffffff1663a9059cbb33836040518363ffffffff1660e01b815260040161094d9291906110dd565b6020604051808303816000875af115801561096c573d6000803e3d6000fd5b505050506040513d601f19601f82011682018060405250810190610990919061104d565b5080600260008282546109a39190611106565b9250508190555080600560003373ffffffffffffffffffffffffffffffffffffffff1673ffffffffffffffffffffffffffffffffffffffff16815260200190815260200160002060008060009054906101000a900473ffffffffffffffffffffffffffffffffffffffff1673ffffffffffffffffffffffffffffffffffffffff1673ffffffffffffffffffffffffffffffffffffffff1681526020019081526020016000206000828254610a579190611106565b9250508190555050565b600160009054906101000a900473ffffffffffffffffffffffffffffffffffffffff1673ffffffffffffffffffffffffffffffffffffffff166323b872dd3330846040518463ffffffff1660e01b8152600401610ac093929190610fde565b6020604051808303816000875af1158015610adf573d6000803e3d6000fd5b505050506040513d601f19601f82011682018060405250810190610b03919061104d565b508060036000828254610b1691906110a9565b9250508190555080600560003373ffffffffffffffffffffffffffffffffffffffff1673ffffffffffffffffffffffffffffffffffffffff1681526020019081526020016000206000600160009054906101000a900473ffffffffffffffffffffffffffffffffffffffff1673ffffffffffffffffffffffffffffffffffffffff1673ffffffffffffffffffffffffffffffffffffffff1681526020019081526020016000206000828254610bcb91906110a9565b9250508190555050565b60008111610c18576040517f08c379a0000000000000000000000000000000000000000000000000000000008152600401610c0f90611197565b60405180910390fd5b600060045482610c2891906111e6565b9050600354811115610c6f576040517f08c379a0000000000000000000000000000000000000000000000000000000008152600401610c66906112cf565b60405180910390fd5b60008054906101000a900473ffffffffffffffffffffffffffffffffffffffff1673ffffffffffffffffffffffffffffffffffffffff166323b872dd3330856040518463ffffffff1660e01b8152600401610ccc93929190610fde565b6020604051808303816000875af1158015610ceb573d6000803e3d6000fd5b505050506040513d601f19601f82011682018060405250810190610d0f919061104d565b50600160009054906101000a900473ffffffffffffffffffffffffffffffffffffffff1673ffffffffffffffffffffffffffffffffffffffff1663a9059cbb33836040518363ffffffff1660e01b8152600401610d6d9291906110dd565b6020604051808303816000875af1158015610d8c573d6000803e3d6000fd5b505050506040513d601f19601f82011682018060405250810190610db0919061104d565b508160026000828254610dc391906110a9565b925050819055508060036000828254610ddc9190611106565b925050819055505050565b6000819050919050565b610dfa81610de7565b82525050565b6000602082019050610e156000830184610df1565b92915050565b600073ffffffffffffffffffffffffffffffffffffffff82169050919050565b6000819050919050565b6000610e60610e5b610e5684610e1b565b610e3b565b610e1b565b9050919050565b6000610e7282610e45565b9050919050565b6000610e8482610e67565b9050919050565b610e9481610e79565b82525050565b6000602082019050610eaf6000830184610e8b565b92915050565b600080fd5b610ec381610de7565b8114610ece57600080fd5b50565b600081359050610ee081610eba565b92915050565b600060208284031215610efc57610efb610eb5565b5b6000610f0a84828501610ed1565b91505092915050565b6000610f1e82610e1b565b9050919050565b610f2e81610f13565b8114610f3957600080fd5b50565b600081359050610f4b81610f25565b92915050565b6000610f5c82610f13565b9050919050565b610f6c81610f51565b8114610f7757600080fd5b50565b600081359050610f8981610f63565b92915050565b60008060408385031215610fa657610fa5610eb5565b5b6000610fb485828601610f3c565b9250506020610fc585828601610f7a565b9150509250929050565b610fd881610f13565b82525050565b6000606082019050610ff36000830186610fcf565b6110006020830185610fcf565b61100d6040830184610df1565b949350505050565b60008115159050919050565b61102a81611015565b811461103557600080fd5b50565b60008151905061104781611021565b92915050565b60006020828403121561106357611062610eb5565b5b600061107184828501611038565b91505092915050565b7f4e487b7100000000000000000000000000000000000000000000000000000000600052601160045260246000fd5b60006110b482610de7565b91506110bf83610de7565b92508282019050808211156110d7576110d661107a565b5b92915050565b60006040820190506110f26000830185610fcf565b6110ff6020830184610df1565b9392505050565b600061111182610de7565b915061111c83610de7565b92508282039050818111156111345761113361107a565b5b92915050565b600082825260208201905092915050565b7f496e76616c696420616d6f756e74000000000000000000000000000000000000600082015250565b6000611181600e8361113a565b915061118c8261114b565b602082019050919050565b600060208201905081810360008301526111b081611174565b9050919050565b7f4e487b7100000000000000000000000000000000000000000000000000000000600052601260045260246000fd5b60006111f182610de7565b91506111fc83610de7565b92508261120c5761120b6111b7565b5b828204905092915050565b7f496e7375666669656e74206c6971756964697479000000000000000000000000600082015250565b600061124d60148361113a565b915061125882611217565b602082019050919050565b6000602082019050818103600083015261127c81611240565b9050919050565b7f496e73756666696369656e74206c697175696469747900000000000000000000600082015250565b60006112b960168361113a565b91506112c482611283565b602082019050919050565b600060208201905081810360008301526112e8816112ac565b905091905056fea26469706673582212208b5ec07e7e676239bb1edc86815ed03cdb0335241d0f00503351fbb7f23cd49964736f6c63430008140033",
  "linkReferences": {},
  "deployedLinkReferences": {}
}